{
  "address": "0x966F1F4c51A47035afC1038526bd3Ba840b2DA46",
  "abi": [
    {
      "inputs": [
        {
          "internalType": "address",
          "name": "exampleExternalContractAddress",
          "type": "address"
        }
      ],
      "stateMutability": "nonpayable",
      "type": "constructor"
    },
    {
      "anonymous": false,
      "inputs": [
        {
          "indexed": false,
          "internalType": "uint256",
          "name": "totalAmount",
          "type": "uint256"
        }
      ],
      "name": "Execute",
      "type": "event"
    },
    {
      "anonymous": false,
      "inputs": [
        {
          "indexed": true,
          "internalType": "address",
          "name": "staker",
          "type": "address"
        },
        {
          "indexed": false,
          "internalType": "uint256",
          "name": "amount",
          "type": "uint256"
        }
      ],
      "name": "Stake",
      "type": "event"
    },
    {
      "anonymous": false,
      "inputs": [
        {
          "indexed": true,
          "internalType": "address",
          "name": "staker",
          "type": "address"
        },
        {
          "indexed": false,
          "internalType": "uint256",
          "name": "amount",
          "type": "uint256"
        }
      ],
      "name": "Withdraw",
      "type": "event"
    },
    {
      "inputs": [
        {
          "internalType": "address",
          "name": "",
          "type": "address"
        }
      ],
      "name": "balances",
      "outputs": [
        {
          "internalType": "uint256",
          "name": "",
          "type": "uint256"
        }
      ],
      "stateMutability": "view",
      "type": "function"
    },
    {
      "inputs": [],
      "name": "deadline",
      "outputs": [
        {
          "internalType": "uint256",
          "name": "",
          "type": "uint256"
        }
      ],
      "stateMutability": "view",
      "type": "function"
    },
    {
      "inputs": [],
      "name": "exampleExternalContract",
      "outputs": [
        {
          "internalType": "contract ExampleExternalContract",
          "name": "",
          "type": "address"
        }
      ],
      "stateMutability": "view",
      "type": "function"
    },
    {
      "inputs": [],
      "name": "execute",
      "outputs": [],
      "stateMutability": "nonpayable",
      "type": "function"
    },
    {
      "inputs": [],
      "name": "openForWithdrawal",
      "outputs": [
        {
          "internalType": "bool",
          "name": "",
          "type": "bool"
        }
      ],
      "stateMutability": "view",
      "type": "function"
    },
    {
      "inputs": [],
      "name": "stake",
      "outputs": [],
      "stateMutability": "payable",
      "type": "function"
    },
    {
      "inputs": [],
      "name": "threshold",
      "outputs": [
        {
          "internalType": "uint256",
          "name": "",
          "type": "uint256"
        }
      ],
      "stateMutability": "view",
      "type": "function"
    },
    {
      "inputs": [],
      "name": "timeLeft",
      "outputs": [
        {
          "internalType": "uint256",
          "name": "",
          "type": "uint256"
        }
      ],
      "stateMutability": "view",
      "type": "function"
    },
    {
      "inputs": [],
      "name": "totalBalance",
      "outputs": [
        {
          "internalType": "uint256",
          "name": "",
          "type": "uint256"
        }
      ],
      "stateMutability": "view",
      "type": "function"
    },
    {
      "inputs": [],
      "name": "withdraw",
      "outputs": [],
      "stateMutability": "nonpayable",
      "type": "function"
    },
    {
      "stateMutability": "payable",
      "type": "receive"
    }
  ],
  "transactionHash": "0x07a494d72e214214e4c46b77c158600c388c2f7c4e0cc811222bc86de59f6387",
  "args": [
    "0xbf37a7808308024271E9cC63708f9d09c3a76981"
  ],
  "numDeployments": 1,
  "solcInputHash": "87b03280a47db1855c21ad6ed7505eb6",
  "bytecode": "0x6080604052670de0b6b3a76400006003556005805460ff1916905534801561002657600080fd5b5060405161093238038061093283398101604081905261004591610076565b600080546001600160a01b0319166001600160a01b03831617905561006d426203f4806100a4565b600255506100c8565b600060208284031215610087578081fd5b81516001600160a01b038116811461009d578182fd5b9392505050565b600082198211156100c357634e487b7160e01b81526011600452602481fd5b500190565b61085b806100d76000396000f3fe6080604052600436106100955760003560e01c806342cde4e81161005957806342cde4e81461013157806361461954146101475780639f75f2271461015c578063a4778fde14610194578063ad7a672f146101b957600080fd5b80631300a6d1146100a957806327e235e3146100d157806329dcb0cf146100fe5780633a4b66f1146101145780633ccfd60b1461011c57600080fd5b366100a4576100a26101cf565b005b600080fd5b3480156100b557600080fd5b506100be6102de565b6040519081526020015b60405180910390f35b3480156100dd57600080fd5b506100be6100ec366004610741565b60016020526000908152604090205481565b34801561010a57600080fd5b506100be60025481565b6100a26101cf565b34801561012857600080fd5b506100a2610302565b34801561013d57600080fd5b506100be60035481565b34801561015357600080fd5b506100a2610535565b34801561016857600080fd5b5060005461017c906001600160a01b031681565b6040516001600160a01b0390911681526020016100c8565b3480156101a057600080fd5b506101a961072a565b60405190151581526020016100c8565b3480156101c557600080fd5b506100be60045481565b600034116102195760405162461bcd60e51b8152602060048201526012602482015271086c2dcdcdee840e6e8c2d6ca4060408aa8960731b60448201526064015b60405180910390fd5b600254421061026a5760405162461bcd60e51b815260206004820152601860248201527f5374616b696e6720706572696f642068617320656e64656400000000000000006044820152606401610210565b33600090815260016020526040812080543492906102899084906107e0565b9250508190555034600460008282546102a291906107e0565b909155505060405134815233907febedb8b3c678666e7f36970bc8f57abf6d8fa2e828c0da91ea5b75bf68ed101a9060200160405180910390a2565b600060025442106102ef5750600090565b426002546102fd91906107f8565b905090565b60008054906101000a90046001600160a01b03166001600160a01b0316639d9a7fe96040518163ffffffff1660e01b815260040160206040518083038186803b15801561034e57600080fd5b505afa158015610362573d6000803e3d6000fd5b505050506040513d601f19601f82011682018060405250810190610386919061076f565b156103a35760405162461bcd60e51b81526004016102109061078f565b60025442116103f45760405162461bcd60e51b815260206004820152601b60248201527f446561646c696e6520686173206e6f74207061737365642079657400000000006044820152606401610210565b60035447106104505760405162461bcd60e51b815260206004820152602260248201527f5468726573686f6c6420776173206d65742c2063616e6e6f7420776974686472604482015261617760f01b6064820152608401610210565b33600090815260016020526040902054806104a65760405162461bcd60e51b81526020600482015260166024820152754e6f2062616c616e636520746f20776974686472617760501b6044820152606401610210565b336000908152600160205260408120819055600480548392906104ca9084906107f8565b9091555050604051339082156108fc029083906000818181858888f193505050501580156104fc573d6000803e3d6000fd5b5060405181815233907f884edad9ce6fa2440d8a54cc123490eb96d2768479d49ff9c7366125a94243649060200160405180910390a250565b60008054906101000a90046001600160a01b03166001600160a01b0316639d9a7fe96040518163ffffffff1660e01b815260040160206040518083038186803b15801561058157600080fd5b505afa158015610595573d6000803e3d6000fd5b505050506040513d601f19601f820116820180604052508101906105b9919061076f565b156105d65760405162461bcd60e51b81526004016102109061078f565b60055460ff16156106295760405162461bcd60e51b815260206004820152601f60248201527f457865637574652068617320616c7265616479206265656e2063616c6c6564006044820152606401610210565b600254421161067a5760405162461bcd60e51b815260206004820152601b60248201527f446561646c696e6520686173206e6f74207061737365642079657400000000006044820152606401610210565b6003544710610728576005805460ff19166001179055600080546040805163522e117760e01b815290516001600160a01b039092169263522e1177924792600480820193929182900301818588803b1580156106d557600080fd5b505af11580156106e9573d6000803e3d6000fd5b50505050507fddb556f1d2c1ec821e910b019d3685b229db152a0ecd517ca7e24b8bd71392894760405161071f91815260200190565b60405180910390a15b565b6000600254421180156102fd575050600354471090565b600060208284031215610752578081fd5b81356001600160a01b0381168114610768578182fd5b9392505050565b600060208284031215610780578081fd5b81518015158114610768578182fd5b60208082526031908201527f4f7065726174696f6e206e6f7420616c6c6f7765642c20636f6e747261637420604082015270185b1c9958591e4818dbdb5c1b195d1959607a1b606082015260800190565b600082198211156107f3576107f361080f565b500190565b60008282101561080a5761080a61080f565b500390565b634e487b7160e01b600052601160045260246000fdfea26469706673582212202c375d2d6e8cf3cc7474645670d4f6536876536e898b6dade0bdc0ffc107afa664736f6c63430008040033",
  "devdoc": {
    "kind": "dev",
    "methods": {},
    "version": 1
  },
  "userdoc": {
    "kind": "user",
    "methods": {},
    "version": 1
  },
  "storageLayout": {
    "storage": [
      {
        "astId": 19,
        "contract": "contracts/Staker.sol:Staker",
        "label": "exampleExternalContract",
        "offset": 0,
        "slot": "0",
        "type": "t_contract(ExampleExternalContract)12"
      },
      {
        "astId": 23,
        "contract": "contracts/Staker.sol:Staker",
        "label": "balances",
        "offset": 0,
        "slot": "1",
        "type": "t_mapping(t_address,t_uint256)"
      },
      {
        "astId": 25,
        "contract": "contracts/Staker.sol:Staker",
        "label": "deadline",
        "offset": 0,
        "slot": "2",
        "type": "t_uint256"
      },
      {
        "astId": 28,
        "contract": "contracts/Staker.sol:Staker",
        "label": "threshold",
        "offset": 0,
        "slot": "3",
        "type": "t_uint256"
      },
      {
        "astId": 30,
        "contract": "contracts/Staker.sol:Staker",
        "label": "totalBalance",
        "offset": 0,
        "slot": "4",
        "type": "t_uint256"
      },
      {
        "astId": 33,
        "contract": "contracts/Staker.sol:Staker",
        "label": "executed",
        "offset": 0,
        "slot": "5",
        "type": "t_bool"
      }
    ],
    "types": {
      "t_address": {
        "encoding": "inplace",
        "label": "address",
        "numberOfBytes": "20"
      },
      "t_bool": {
        "encoding": "inplace",
        "label": "bool",
        "numberOfBytes": "1"
      },
      "t_contract(ExampleExternalContract)12": {
        "encoding": "inplace",
        "label": "contract ExampleExternalContract",
        "numberOfBytes": "20"
      },
      "t_mapping(t_address,t_uint256)": {
        "encoding": "mapping",
        "key": "t_address",
        "label": "mapping(address => uint256)",
        "numberOfBytes": "32",
        "value": "t_uint256"
      },
      "t_uint256": {
        "encoding": "inplace",
        "label": "uint256",
        "numberOfBytes": "32"
      }
    }
  }
}